:020000040000fa
:080000000002040000000000f2
:020000040000fa
:1000080090020000900200009002000090020000a0
:100018009002000090020000900200009002000090
:10002800900200009002000090020000940200007c
:100038009002000090020000900200009002000070
:100048009002000090020000900200009002000060
:100058009002000090020000900200009002000050
:100068009002000090020000900200009002000040
:100078009002000090020000900200009002000030
:100088009002000090020000900200009002000020
:100098009002000090020000900200009002000010
:1000a8009002000090020000900200009002000000
:1000b80090020000900200009002000090020000f0
:1000c80090020000900200009002000090020000e0
:1000d80090020000900200009002000090020000d0
:1000e80090020000900200009002000090020000c0
:1000f80090020000900200009002000090020000b0
:10010800900200009002000090020000900200009f
:10011800900200009002000090020000900200008f
:10012800900200009002000090020000900200007f
:10013800900200009002000090020000900200006f
:10014800900200009002000090020000900200005f
:10015800900200009002000090020000900200004f
:10016800900200009002000090020000900200003f
:10017800900200009002000090020000900200002f
:10018800900200009002000090020000900200001f
:10019800900200009002000090020000900200000f
:1001a80090020000900200009002000090020000ff
:1001b80090020000900200009002000090020000ef
:1001c80090020000900200009002000090020000df
:1001d80090020000900200009002000090020000cf
:1001e80090020000900200009002000090020000bf
:0801f8009002000090020000db
:020000040000fa
:10020800900200009002000090020000900200009e
:10021800900200009002000090020000900200008e
:10022800900200009002000090020000940200007a
:10023800900200009002000090020000900200006e
:10024800900200009002000090020000900200005e
:10025800900200009002000090020000900200004e
:10026800900200009002000090020000900200003e
:10027800900200009002000090020000900200002e
:10028800900200009002000090020000900200001e
:10029800900200009002000090020000900200000e
:1002a80090020000900200009002000090020000fe
:1002b80090020000900200009002000090020000ee
:1002c80090020000900200009002000090020000de
:1002d80090020000900200009002000090020000ce
:1002e80090020000900200009002000090020000be
:1002f80090020000900200009002000090020000ae
:10030800900200009002000090020000900200009d
:10031800900200009002000090020000900200008d
:10032800900200009002000090020000900200007d
:10033800900200009002000090020000900200006d
:10034800900200009002000090020000900200005d
:10035800900200009002000090020000900200004d
:10036800900200009002000090020000900200003d
:10037800900200009002000090020000900200002d
:10038800900200009002000090020000900200001d
:10039800900200009002000090020000900200000d
:1003a80090020000900200009002000090020000fd
:1003b80090020000900200009002000090020000ed
:1003c80090020000900200009002000090020000dd
:1003d80090020000900200009002000090020000cd
:1003e80090020000900200009002000090020000bd
:0803f8009002000090020000d9
:020000040000fa
:100400004fe420000eff20000e01880000000000d5
:100410000c000700a03c2000010020001100070094
:10042000000020000000e000020032000000020096
:10043000000000008e030200000000000040da000f
:100440000000fe004440a900000020000000e00081
:100450000300320000002000a00188004440a800f2
:100460000000060091018800800078000000eb0089
:1004700015003700e280400032a0b4009101ba00bc
:10048000e280400032a0b4009102ba00e280400055
:1004900032a0b4000002eb00472bde00f507b200eb
:1004a000602ce10004003a000059eb008301e900f0
:1004b000fdff3e00040037006128e100010032002a
:1004c0000082eb00040007001101ba000200e00006
:1004d000e8ff3a00000006003159ba008301e90044
:1004e0000c0032002159ba008301e90008003200f3
:1004f0000400e00003003a00e280400032a0b400b3
:10050000f5ff370011d9ba008301e900faff3a007c
:100510008100e800e180400032a0b4000000060045
:080520000040da000000fe00bb
:020000040000fa
:10052800809fbe00829fbe00849fbe008460a90099
:1005380010728000000888003c2eec00ca82aa00d5
:10054800cce2ae00b2020400000000000c28ec006f
:10055800ccc2af001e2eec000408a800cce2af000d
:1005680040030400000000000408ae003e0304003d
:10057800000000000408a9000428af00ee020400ef
:10058800000000001eaebf000a003200904080004c
:100598009000b100040032001228ef000228ef009a
:1005a80038030400000000000428a800ee0204003c
:1005b800000000001228ec00904080009000b1007c
:1005c800040036001228ef000228ef003803040068
:1005d800000000000228ec00104080000408200001
:1005e8000400e600050037000a28ec000428a900ea
:1005f8000448a8000228ef00000000000a08af0025
:100608001a0304000000000002c8bf000080fb00bd
:10061800f17080000001400060c12000000041002e
:1006280001087800280304000000000002c8bf0089
:100638000080fb00f170800000014000a0d1200084
:10064800000041000108780002c8bf000080fb00dc
:100658006140800000014000a081200000004100ae
:10066800010878001028ef000c28ef000e28ef0092
:100678001e2eef000e28ec004f02be004f01be00f8
:100688004f00be00004006001028ec0038030400ac
:10069800000000000200fa000000eb00000f7800e4
:1006a800f0032000303a8800213a8000f0f32f0050
:1006b80000806000203a8800213a800000fe2f0068
:1006c80000806000203a8800120020008007200087
:1006d800a1092000337420008049780081497800fe
:1006e8008249780012002000600420007105200073
:1006f8002374200080497800814978008249780075
:10070800103a8000103a80001e0fe8000080fa00be
:10071800000006000000fa000040eb0002e8b70005
:100728000040eb0003e8b700daff070025000700e8
:100738001f0007002800070007000700c882a9005b
:10074800c8c2a800c8e2a8000000eb0090408800da
:100758009460a800ffff37000000fa0005e1a80038
:1007680005a1a80021088000f0fc2f00008060008f
:100778002008880004a1a9000421a90020ee2f0068
:0c078800000888000080fa000000060055
:020000040000fa
:10079400000800003e060000000000003e0e0000bd
:1007a40006000000020000000000000000e2fe005d
:0407b4000000000041
:020000040000fa
:1007b8000000fa002c03a9002c23a9000080fa00ed
:1007c800000006000000fa00f0072000b00e8800c4
:1007d8000080fa00000006000000fa000080fa001d
:0407e8000000060007
:020000040000fa
:0200000401f009
:040000000f000000ed
:020000040000fa
:0200000401f009
:0400080007000000ed
:020000040000fa
:0200000401f009
:04000c00810000006f
:020000040000fa
:0200000401f009
:040010006700000085
:020000040000fa
:0200000401f009
:040014005f00000089
:020000040000fa
:0200000401f009
:04001800f7000000ed
:020000040000fa
:0200000401f009
:04001c00dfff000002
:00000001FF
